:020000040800F2
:1000000058060020450100084D0100084F01000876
:1000100051010008530100085501000800000000CC
:100020000000000000000000000000005701000870
:1000300059010008000000005B010008412400088D
:100040005F0100085F0100085F0100085F01000810
:100050005F0100085F0100085F0100085F01000800
:100060005F0100085F0100085F0100085F010008F0
:100070005F0100085F0100085F0100085F010008E0
:100080005F0100085F0100085F0100085F010008D0
:100090005F0100085F0100085F0100085F010008C0
:1000A0005F010008C53400085F0100085F01000817
:1000B0005F01000803300008E12F00085F0100081D
:1000C0005F0100085F0100085F0100085F01000890
:1000D0005F010008493300085F0100085F01000864
:1000E0005F0100085F0100085F0100085F01000870
:1000F0005F0100085F0100085F0100085F01000860
:100100005F0100085F010008313400085F0100084A
:100110005F0100085F0100085F0100085F0100083F
:100120005F0100085F0100085F0100085F0100082F
:10013000DFF80CD003F054FC0048004759310008A8
:10014000580600200648804706480047FEE7FEE7BD
:10015000FEE7FEE7FEE7FEE7FEE7FEE7FEE7FEE777
:1001600047020008310100080CB500200190009002
:100170006C48006840F480306A49086000BF6948F4
:10018000006800F4003000900198401C0190009835
:1001900018B90198B0F5A06FF1D16248006800F479
:1001A000003010B10120009001E000200090009884
:1001B000012843D15C48006840F010005A490860AB
:1001C0000846006820F0030008600846006840F018
:1001D0000200086053484068524948600846406839
:1001E00048600846406840F48060486008464068BF
:1001F00020F47C1048600846406840F4E8104860ED
:100200000846006840F08070086000BF45480068FC
:1002100000F000700028F9D04248406820F0030048
:10022000404948600846406840F00200486000BF0E
:100230003C48406800F00C000828F9D10CBD10B50E
:10024000FFF792FF10BD10B53648006840F001007E
:1002500034490860084640683449084031494860DC
:1002600008460068324908402E4908600846006880
:1002700020F4802008600846406820F4FE004860B2
:100280004FF41F008860FFF7DAFF4FF00060294944
:10029000086010BD10B5002100200022214B5B68D2
:1002A00003F00C0121B1042906D0082928D107E068
:1002B000214B224C236027E01F4B204C236023E07E
:1002C000184B5B6803F47010164B5B6803F48032C4
:1002D000022303EB904022B9194B4343174C236090
:1002E0000DE0104B5B6803F4003323B1144B434320
:1002F000124C236003E0104B4343104C236003E097
:100300000D4B0E4C236000BF00BF064B5B68C3F370
:1003100003130C4CE15C094B1B68CB40074C23607A
:1003200010BD000000100240002002400000FFF855
:10033000FFFFF6FE08ED00E000127A00000000204A
:1003400000093D000400002031490143314A116099
:10035000704770B5002100230F22C47804B32D4CE0
:10036000246804F4E064C4F5E064210AC1F10403E4
:10037000CA40447804FA03F1847814402143090107
:10038000254C0678A155047804F01F050124AC40E3
:1003900005786D11AD0005F1E025C5F8004109E0D3
:1003A000047804F01F050124AC401C4D067876113A
:1003B00045F8264070BD1A4A0A400243154B1B1FE0
:1003C0001A60704739B1134A121D12680243114B6B
:1003D0001B1D1A6006E00F4A121D126882430D4B66
:1003E0001B1D1A607047042808D14FF0E0210969ED
:1003F00041F004014FF0E022116107E04FF0E021ED
:10040000096921F004014FF0E022116170470000FA
:100410000000FA050CED00E000E400E080E100E0FF
:1004200080FFFF1F01460020FE4A106800F03800E0
:10043000084310607047FB49096821F00801F94A38
:10044000116011460968014311607047F549096858
:1004500021F01001F34A116011460968014311604F
:100460007047F148EF494860F04848607047EE48EF
:10047000EC494860ED4848607047EA48006940F040
:100480008000E84908617047E648006940F0800054
:10049000E449086170470420E249C96801F001019C
:1004A00009B101200EE0DF49C96801F0040109B17A
:1004B000022007E0DB49C96801F0100109B10320FF
:1004C00000E00420704700B502460423FFF7E3FF75
:1004D000034603E0FFF7DFFF0346521E012B01D165
:1004E000002AF7D102B90523184600BD30B50446ED
:1004F00004254FF43020FFF7E6FF0546042D17D101
:10050000C848006940F00200C649086108464461D5
:10051000006940F0400008614FF43020FFF7D3FF3E
:100520000546C048006941F6FD710840BD490861B3
:10053000284630BD10B504244FF43020FFF7C3FF28
:100540000446042C16D1B748006940F00400B549B0
:1005500008610846006940F0400008614FF430200F
:10056000FFF7B1FF0446AF48006941F6FB71084050
:10057000AC490861204610BD00B502460423FFF7D0
:100580008AFF034603E0FFF786FF0346521E012B56
:1005900001D1002AF7D102B90523184600BD10B5D4
:1005A00004244FF43020FFF7E7FF0446042C16D153
:1005B0009C48006940F004009A49086108460069B7
:1005C00040F0400008614FF43020FFF7D5FF0446AB
:1005D0009448006941F6FB71084092490861204641
:1005E00010BD00208F49C96901F0020109B1012045
:1005F00000E00020704730B5A5250424FFF7F1FF87
:1006000000B100254FF43020FFF75DFF0446042CB5
:100610003AD18548834988608448886008460069E3
:1006200040F0200008610846006940F04000086181
:100630004FF43020FFF747FF0446042C1BD17948C4
:10064000006941F6DF710840764908610846006993
:1006500040F01000086176480580E002FFF733FFA4
:100660000446052C10D06F48006941F6EF71084030
:100670006C49086108E0052C06D06A48006941F61B
:10068000EF71084067490861204630BD78B50646DD
:100690000C46042500200090E802FFF714FF0546F1
:1006A000042D24D15F48006940F001005D490861D4
:1006B0003480E802FFF707FF0546042D10D1B01C77
:1006C0000090200C00990880E802FFF7FCFE054628
:1006D0005448006941F6FE7108405249086106E03D
:1006E0005048006941F6FE7108404E4908612846AD
:1006F00078BD70B504460D460426F002FFF7E3FE10
:100700000646042E11D14748006940F001004549D2
:1007100008612580F002FFF7D6FE064641480069D1
:1007200041F6FE7108403F490861304670BD70B522
:1007300005460E460424E002FFF7C5FE0446042CDD
:1007400017D13948374988603848886008460069B9
:1007500040F0100008612E80E002FFF7B4FE04466E
:10076000052C06D02F48006941F6EF7108402D494D
:100770000861204670BD2DE9F04304464FF6FF7630
:100780003746B046B1460425E443E6B2C4F3072732
:10079000C4F307484FEA1469E802FFF794FE0546E0
:1007A000042D49D120481F498860204888600846A8
:1007B000006940F010000861FF2E06D01C48083088
:1007C0000680E802FFF77FFE0546042D08D1FF2FC3
:1007D00006D017480A300780E802FFF774FE054686
:1007E000042D0AD1B8F1FF0F07D011480C30A0F842
:1007F0000080E802FFF767FE0546042D0AD1B9F133
:10080000FF0F07D00A480E30A0F80090E802FFF76B
:100810005AFE0546052D0FD00248006941F6EF71DA
:10082000084007E00020024023016745AB89EFCD77
:1008300000F8FF1F664908612846BDE8F08330B51F
:10084000054604244FF43020FFF73DFE0446042CF7
:1008500041D160485E4988605F4888600846006909
:1008600040F0200008610846006940F0400008613F
:100870004FF43020FFF727FE0446042C22D15448C1
:10088000006941F6DF710840514908610846006976
:1008900040F0100008611DB100205049088002E0BE
:1008A000A5204E4908804FF43020FFF70CFE044687
:1008B000052C10D04648006941F6EF7108404449C4
:1008C000086108E0052C06D04148006941F6DF7157
:1008D00008403F490861204630BDF0B505460E4648
:1008E000174604243B483A4988603B488860E00248
:1008F000FFF7E9FD0446042C19D13548006940F0A2
:1009000010003349086147F0F80030432843334969
:10091000891C0880E002FFF7D6FD0446052C06D0AE
:100920002B48006941F6EF710840294908612046CB
:10093000F0BD2748C069800870472548006A7047A5
:1009400000202349096801F0200109B1012000E0DD
:100950000020704729B11E4A126902431C4B1A61DC
:1009600004E01B4A12698243194B1A617047014621
:100970000020012908D1164AD26902F001020AB109
:10098000012008E0002006E0114AD2680A400AB1BE
:10099000012000E0002070470D49C8607047042026
:1009A0000B49C96801F0010109B101200EE00849B5
:1009B000C96801F0040109B1022007E00449C968CF
:1009C00001F0100109B1032000E00420704700008D
:1009D0000020024023016745AB89EFCD00F8FF1FDF
:1009E00010B50446CC48844208D10121042000F00F
:1009F0004DFB0021042000F049FB46E0C74884423B
:100A000008D10121082000F041FB0021082000F05E
:100A10003DFB3AE0C248844208D10121102000F099
:100A200035FB0021102000F031FB2EE0BD48844250
:100A300008D10121202000F029FB0021202000F016
:100A400025FB22E0B848844208D10121402000F073
:100A50001DFB0021402000F019FB16E0B348844242
:100A600008D10121802000F011FB0021802000F03E
:100A70000DFB0AE0AE48844207D10121801500F049
:100A800005FB0021A01500F001FB10BD10B50121F0
:100A9000084600F0FBFA0021012000F0F7FA10BD33
:100AA0002DE9F04102460025002600200023002405
:100AB000002791F803C00CF00F0591F803C00CF06B
:100AC000100CBCF1000F03D091F802C04CEA0505F0
:100AD00091F800C0BCF1000F31D0146800202BE069
:100AE0004FF0010C0CFA00F3B1F800C00CEA030659
:100AF0009E4220D183004FF00F0C0CFA03F7BC4349
:100B000005FA03FC4CEA040491F803C0BCF1280F79
:100B100006D14FF0010C0CFA00FCC2F814C00AE038
:100B200091F803C0BCF1480F05D14FF0010C0CFA4D
:100B300000FCC2F810C0401C0828D1D31460B1F8E2
:100B400000C0BCF1FF0F34DD546800202EE000F13E
:100B5000080C4FF0010808FA0CF3B1F800C00CEAD9
:100B600003069E4221D183004FF00F0C0CFA03F7CD
:100B7000BC4305FA03FC4CEA040491F803C0BCF141
:100B8000280F05D100F1080C08FA0CF8C2F81480FF
:100B900091F803C0BCF1480F07D100F1080C4FF0E9
:100BA000010808FA0CF8C2F81080401C0828CED3BF
:100BB0005460BDE8F0814FF6FF7101800221817021
:100BC0000421C17070470246002093680B400BB1AE
:100BD000012000E0002070470146886880B270471D
:100BE00002460020D3680B400BB1012000E000203A
:100BF00070470146C86880B2704701617047416123
:100C000070470AB1016100E041617047C1607047FF
:100C10004FF480320A438261816182618269826914
:100C2000704702460020434B18684FF68073184007
:100C300040EA021008433F4B186070473E49C861C4
:100C40007047F0B50A46002300240021002500F07B
:100C50000046B6F1004F02D1364EF16901E0354E43
:100C60007168C0F3034583B200F44016B6F5401F27
:100C700008D121F070612F4E766826F070662D4FF6
:100C80007E6012E000F48016B6F5801F06D10326C0
:100C900006FA05F4A14341F0706106E0460D360105
:100CA00003FA06F6B14341F0706122B1460D3601F8
:100CB00003FA06F6314300F00046B6F1004F02D1C8
:100CC0001C4EF16101E01B4E7160F0BD30B5002299
:100CD0008B071C0F0F2303FA04F2164B08338C10FA
:100CE00053F824309343134C08348D1044F82530C6
:100CF00023468C1053F824308C07240F00FA04F498
:100D000023430C4C08348D1044F8253030BD0A497B
:100D1000DC3108607047000000080140000C014011
:100D2000001001400014014000180140001C014067
:100D30000020014000000140000020420E490860F0
:100D400070470D49486070470B49886070474AF604
:100D5000AA200949086070474CF6CC400649086053
:100D6000704701460020044AD2680A400AB10120B7
:100D700000E000207047000000300040DF480068BD
:100D800040F00100DD49086008464068DC49084041
:100D9000DA49486008460068DA490840D7490860DF
:100DA0000846006820F4802008600846406820F467
:100DB000FE0048604FF41F0088607047CF49096803
:100DC00021F48031CD4A11601146096821F4802157
:100DD0001160B0F5803F03D0B0F5802F0ED106E052
:100DE000C649096841F48031C44A116007E0C3492B
:100DF000096841F4A021C14A116000E000BF00BFB2
:100E0000704710B501460022002300204A11012A34
:100E100002D1BA4C236806E0022A02D1B74C236AF9
:100E200001E0B64C636A01F01F02012494401C40AB
:100E30000CB1012000E0002010BD38B5002000906A
:100E40000024002500BF3120FFF7DBFF0546009896
:100E5000401C00900098B0F5A06F01D0002DF2D09A
:100E60003120FFF7CEFF08B1012400E00024204626
:100E700038BD01460020A14A106820F0F80040EA81
:100E8000C10010607047A04908607047024600200A
:100E90009A4B586820F47C1042EA01031843974BA0
:100EA0005860704798490866704701460020934A89
:100EB000506820F003000843506070478F48406836
:100EC00000F00C007047014600208C4A506820F06A
:100ED000F00008435060704701460020874A506880
:100EE00020F4E06008435060704701460020834AC8
:100EF000506820F4605040EAC1005060704729B14A
:100F00007E4A527A02437D4B5A7204E07B4A527AFF
:100F100082437A4B5A7270477B49D83108607047D8
:100F200001460020754A506820F440400843506054
:100F300070470021714A20321170704A82F82010E7
:100F4000012802D004280AD104E001216B4A203292
:100F5000117005E00521694A2032117000E000BFE0
:100F600000BF70476949086070476449096A0143D6
:100F7000624A11627047654944390860704730B56C
:100F800000210022002400235C4D6D6805F00C0157
:100F900021B1042905D0082923D105E05C4D056065
:100FA00022E05B4D05601FE0544D6D6805F4701242
:100FB000524D6D6805F48034022505EB92421CB950
:100FC000544D554305600BE04C4D6D6805F40035FC
:100FD0001DB1504D5543056002E04D4D5543056030
:100FE00002E04B4D056000BF00BF444D6D6805F049
:100FF000F0010909484D6B5C0568DD4045603F4DD7
:101000006D6805F4E061090A434D6B5C4568DD409D
:1010100085603A4D6D6805F46051C90A3E4D6B5CC0
:101020004568DD40C560354D6D6805F44041890B6C
:101030003A4D6B5CC568B5FBF3F5056130BD29B170
:101040002E4A526902432D4B5A6104E02B4A5269E1
:1010500082432A4B5A61704729B1284A9269024358
:10106000264B9A6104E0254A92698243234B9A6198
:10107000704729B1214AD2690243204BDA6104E06A
:101080001E4AD26982431D4BDA61704729B11B4A5F
:10109000D2680243194BDA6004E0184AD2688243EE
:1010A000164BDA60704729B1144A12690243134B98
:1010B0001A6104E0114A12698243104B1A617047A9
:1010C00012494039086070470F49C86470470B499E
:1010D000C87170470948406A40F08070074948620B
:1010E000704701460020054A92680A400AB1012073
:1010F00000E00020704701498872704700100240EC
:101100000000FFF8FFFFF6FE00004242800442426A
:1011100000127A0000093D00140000202400002085
:1011200010B50446FE48844208D10121C014FFF7DF
:10113000ADFF0021E014FFF7A9FFC4E0B4F1804F38
:1011400008D101210846FFF7AEFF00210120FFF77B
:10115000AAFFB8E0F348844208D101210220FFF73A
:10116000A2FF00210220FFF79EFFACE0EE48844280
:1011700008D101210420FFF796FF00210420FFF78A
:1011800092FFA0E0E948844208D101210820FFF73E
:101190008AFF00210820FFF786FF94E0E44884429C
:1011A00008D101211020FFF77EFF00211020FFF75A
:1011B0007AFF88E0DF48844208D101212020FFF730
:1011C00072FF00212020FFF76EFF7CE0DA488442A6
:1011D00008D101214014FFF759FF00216014FFF7E7
:1011E00055FF70E0D548844209D10121C804FFF7BA
:1011F0004DFF00214FF40020FFF748FF63E0D04887
:10120000844209D101210805FFF740FF00214FF476
:101210008010FFF73BFF56E0CA48844209D1012104
:101220004805FFF733FF00214FF40010FFF72EFFB2
:1012300049E0C548844208D101214020FFF733FF2F
:1012400000214020FFF72FFF3DE0C048844208D135
:1012500001218020FFF727FF00218020FFF723FFD7
:1012600031E0BB48844208D101218015FFF71BFF04
:101270000021A015FFF717FF25E0B648844209D1E9
:1012800001210804FFF702FF00214FF48030FFF72F
:10129000FDFE18E0B048844209D101214804FFF75F
:1012A000F5FE00214FF40030FFF7F0FE0BE0AB48F5
:1012B000844208D101218804FFF7E8FE00214FF4A1
:1012C0008020FFF7E3FE10BD00220288944B984275
:1012D0000ED0994B98420BD0B0F1804F08D0914B73
:1012E000984205D0904B984202D0904B984204D13E
:1012F0004FF68F731A404B881A438D4B984207D094
:101300008C4B984204D04FF6FF431A40CB881A43C7
:1013100002808B8883850B880385814B98420BD094
:10132000854B984208D08B4B984205D08A4B984207
:1013300002D08A4B984201D10B7A03860123838223
:10134000704770B5002400220023058C4FF6FE760E
:1013500035400584028C8388048B4FF68F752C40B2
:10136000B51E2C400D882C43751E2A400D892A433A
:101370004D882A436A4DA8420BD06F4DA84208D031
:10138000744DA84205D0744DA84202D0734DA842B6
:1013900013D14FF6F7752A404D892A434FF6FB7556
:1013A0002A408D882A434FF6FF652B404FF6FF55A4
:1013B0002B408D892B43CD892B4383800483CD889B
:1013C0008586028470BD70B5002400220023058C40
:1013D0004FF6EF7635400584028C8388048B48F6FF
:1013E000FF752C404FF6FF452C400D884FF6FF76D9
:1013F00006EA05252C434FF6DF752A400D8906EADB
:1014000005152A434D8806EA05152A43444DA8428E
:1014100002D0494DA8421DD14FF67F752A404D8913
:101420004FF6FF7606EA05152A434FF6BF752A40A8
:101430008D8806EA05152A434FF6FF352B404FF2FB
:10144000FF752B408D8906EA85052B43CD8906EA79
:1014500085052B4383800483CD880587028470BD76
:1014600070B5002400220023058C4FF6FF6635403E
:101470000584028C8388848B4FF68F752C404FF641
:10148000FC752C400D882C434FF6FF552A400D89E2
:101490004FF6FF7606EA05252A434D8806EA05251C
:1014A0002A431F4DA84202D0234DA8421DD14FF21E
:1014B000FF752A404D894FF6FF7606EA05252A4337
:1014C0004FF6FF352A408D8806EA05252A434EF659
:1014D000FF752B404DF6FF752B408D8906EA0515EB
:1014E0002B43CD8906EA05152B4383808483CD8861
:1014F0008587028470BD70B5002200230024058C0E
:101500004EF6FF7635400584038C8488828B48F63E
:10151000FF752A404FF6FF452A400D8820E0000065
:10152000002C01400004004000080040000C004076
:10153000001000400014004000340140004C014005
:10154000005001400054014000180040001C0040C1
:10155000002000400040014000440140004801409C
:101560004FF6FF7606EA05252A434DF6FF752B4018
:101570000D8906EA05352B434D8806EA05352B43D0
:10158000FA4DA84202D0FA4DA84208D14BF6FF7599
:101590002C408D894FF6FF7606EA85152C43848012
:1015A0008283CD88A0F84050038470BD828B4FF2B7
:1015B000FF331A408283828B4FF6FF7303EA0123C5
:1015C0001A4382837047F0B50C461546002200216D
:1015D0000026078C4EF6FF7C07EA0C070784828BF7
:1015E000018C4FF6FF7707EA043640F6FF473A4092
:1015F0004FF6FF7707EA05273A434FF6FF7707EAEA
:1016000003373A43D94FB8420ED0D94FB8420BD026
:10161000B0F1804F08D0D74FB84205D0D64FB8426E
:1016200002D0D64FB84206D14DF6FF77394046F486
:101630008057394305E047F6FF57394044F4805757
:10164000394382830184F0BD828B4FF6F3731A40D5
:101650008283828B0A4382837047F0B50C4615461D
:10166000002200210026078C4FF6FF6C07EA0C07CA
:101670000784828B018C4FF6FF7707EA04264FF62A
:101680000C773A404FF6FF7707EA03172F433A43A8
:10169000B64FB8420ED0B64FB8420BD0B0F1804F23
:1016A00008D0B44FB84205D0B34FB84202D0B34FC0
:1016B000B84206D14FF6FF57394046F48077394398
:1016C00005E04FF2FF57394044F480773943828375
:1016D0000184F0BD028B4FF2FF331A400283028B6C
:1016E0004FF6FF7303EA01231A4302837047F0B5F4
:1016F0000C461546002200210026078C4FF6EF7C91
:1017000007EA0C070784028B018C4FF6FF7707EA84
:10171000041640F6FF473A404FF6FF7707EA0337D3
:101720003A434FF6FF7707EA05273A438F4FB8420F
:101730000ED08F4FB8420BD0B0F1804F08D08D4FF4
:10174000B84205D08C4FB84202D08C4FB84206D177
:101750004FF6DF77394046F01007394305E04FF682
:101760005F77394044F01007394302830184F0BDAC
:10177000028B4FF6F3731A400283028B0A430283F3
:101780007047F0B50C46154600220021068C4FF636
:10179000FE773E400684028B018C4FF60C76324079
:1017A0007E1C06EA03162E433243704EB0420ED022
:1017B0006F4EB0420BD0B0F1804F08D06D4EB042AA
:1017C00005D06D4EB04202D06C4EB04206D14FF6FD
:1017D000FD76314044F00106314305E04FF6F576E1
:1017E000314044F00106314302830184F0BD70B5FD
:1017F00005460C465D4885420ED05D4885420BD0BB
:10180000B5F1804F08D05B48854205D05A488542E3
:1018100002D05A48854200D100E000BF208850B96C
:101820002389A28861882846FFF7ABFFE188284614
:10183000FFF79EFF25E0208804280AD12389A2888B
:1018400061882846FFF753FFE1882846FFF742FFEB
:1018500017E0208808280AD12389A28861882846B1
:10186000FFF7FBFEE1882846FFF7EEFE09E023893B
:10187000A28861882846FFF7A6FEE1882846FFF780
:1018800095FE70BD2DE9F04105460C460026012766
:10189000608808B9022600E00026A088012801D14E
:1018A000022700E001272088A0B92389A288618847
:1018B0002846FFF766FFE1882846FFF759FF23898E
:1018C0003A4631462846FFF712FFE1882846FFF7DF
:1018D00001FF13E02389A28861882846FFF707FFEC
:1018E000E1882846FFF7F6FE23893A463146284626
:1018F000FFF747FFE1882846FFF73AFFBDE8F08190
:101900000A884B881A438B881A43CB881A430B8961
:101910001A434B891A438B891A43A0F84420704715
:101920004FF6FF71818000210180C18041800172EA
:1019300070470021018041808180C1800181418107
:101940008181C18170470021018041800121818016
:101950000021C18001817047002101804180818088
:10196000C18001814181818170470000002C0140CC
:10197000003401400004004000080040000C00401A
:1019800021B1028842F00102028004E002884FF691
:10199000FE731A400280704731B1B0F8442042F41F
:1019A0000042A0F8442005E0B0F84420C2F30E0243
:1019B000A0F8442070471AB183890B43838102E069
:1019C00083898B43838170478182704741EA020398
:1019D000A0F8483070471AB183890B43838102E035
:1019E00083898B438381704701894FF6F8721140D8
:1019F000018170470A46002101894FF68F73194013
:101A000011430181704730B504460D4629462046F2
:101A1000FFF7F0FF208940F00700208130BD2DE95D
:101A2000F04104460D4616461F46602D06D13B4642
:101A3000012231462046FFF75AFE05E03B460122CF
:101A400031462046FFF79DFE29462046FFF7D2FF8C
:101A5000208940F007002081BDE8F08130B50C46B8
:101A600000210189C9B24FF6FF7505EA0325154328
:101A700025432943018130BD2DE9F04105460E463D
:101A800017469846002443463A4631462846FFF713
:101A9000E5FF2C894FF6F870044044F007044FF638
:101AA0008F70044044F070042C81BDE8F081F0B5E3
:101AB00004460D4616461F463B46324629462046FA
:101AC000FFF7CCFF208940F480402081F0BD0185E4
:101AD000828270470A46002101884FF68F731940B1
:101AE000114301807047F0B50C4615461E46002193
:101AF000002200230189028B038C4FF6F8773940CE
:101B000021434FF6FC473A4040F201173A434FF663
:101B1000DD773B404FF6FF7707EA06172F433B433D
:101B2000018102830384F0BD0A460021018B4FF638
:101B30008F7319401143018370470A460021018BBE
:101B400048F6FF7319404FF6FF7303EA0223194367
:101B5000018370470A460021818B4FF68F7319402D
:101B60001143818370470A460021818B48F6FF7339
:101B700019404FF6FF7303EA02231943818370472C
:101B800021B1028842F08002028004E002884FF610
:101B90007F731A400280704721B1828842F00402AC
:101BA000828004E082884FF6FB731A40828070477F
:101BB00021B1828842F00802828004E082884FF6D8
:101BC000F7731A408280704721B1828842F0010287
:101BD000828004E082884FF6FE731A40828070474C
:101BE0000A460021018B4FF6F77319401143018318
:101BF00070470A460021018B4FF2FF7319404FF6E0
:101C0000FF7303EA02231943018370470A46002148
:101C1000818B4FF6F77319401143818370470A4651
:101C20000021818B4FF2FF7319404FF6FF7303EAD7
:101C300002231943818370470A460021018B4FF626
:101C4000FB7319401143018370470A460021018B41
:101C50004FF6FF3319404FF6FF7303EA022319438F
:101C6000018370470A460021818B4FF6FB731940B0
:101C70001143818370470A460021818B4FF6FF3361
:101C800019404FF6FF7303EA02231943818370471B
:101C90000A460021018B4FF67F73194011430183DF
:101CA00070470A460021018BC1F30E014FF6FF7306
:101CB00003EA02231943018370470A460021818BFE
:101CC0004FF67F7319401143818370470A46002104
:101CD000818BC1F30E014FF6FF7303EA0223194310
:101CE000818370470A460021018C4FF6FD7319402D
:101CF0001143018470470A460021018C4FF6F773A7
:101D000019401143018470470A460021018C4FF6A7
:101D1000DF7319404FF6FF7303EA0213194301847E
:101D200070470A460021018C4FF67F7319404FF629
:101D3000FF7303EA02131943018470470A46002126
:101D4000018C4FF6FF5319404FF6FF7303EA02234D
:101D50001943018470470A460021018C4FF2FF733A
:101D600019404FF6FF7303EA0223194301847047B9
:101D70000A460021018C4DF6FF7319404FF6FF73A0
:101D800003EA023319430184704730B5002301246C
:101D90008C40A3B2048C9C430484048C02FA01F5A9
:101DA000ADB22C43048430BD30B5002304248C40F4
:101DB000A3B2048C9C430484048C02FA01F5ADB2F6
:101DC0002C43048430BD70B503460020002418461F
:101DD000183001258D40ACB21D8CA5431D8409B17E
:101DE000082909D100EB6100056825F07005056040
:101DF0000568154305600EE00D1FC5F34E05284428
:101E0000056825F4E045056005684FF6FF7606EAAB
:101E100002263543056070BD21B1028842F00202FE
:101E2000028004E002884FF6FD731A40028070477A
:101E300021B1028842F00402028004E002884FF6D9
:101E4000FB731A400280704721B1828842F0800201
:101E5000828004E082884FF67F731A408280704748
:101E600002884FF6F7731A40028002880A43028004
:101E7000704782884FF68F731A40828082880A43A7
:101E80008280704702894FF6F8731A4002810289F6
:101E90000A430281704702894FF67F731A4002811C
:101EA00002890A43028170478184704781857047A7
:101EB000818670470187704781877047A0F840107E
:101EC000704702884FF6FF431A40028002880A4397
:101ED000028070470146888E70470146088F704720
:101EE0000146888F70470146B1F8400070470146AF
:101EF000888C70470146088D704702460020138A7F
:101F00000B400BB1012000E000207047CA43028261
:101F1000704730B50246002000230024158A05EAE8
:101F20000103958905EA010413B10CB1012000E019
:101F3000002030BDCA4302827047000010B504463D
:101F4000FB48844209D101218803FFF79FF8002153
:101F50004FF48040FFF79AF832E0F648844209D106
:101F600001214804FFF79FF800214FF40030FFF7EC
:101F70009AF825E0F048844209D101218804FFF74E
:101F800092F800214FF48020FFF78DF818E0EB481D
:101F9000844209D10121C804FFF785F800214FF4DC
:101FA0000020FFF780F80BE0E548844208D10121CA
:101FB0000805FFF778F800214FF48010FFF773F859
:101FC00010BD2DE9F04786B005460E460024A24616
:101FD00000BFA1460027B08900B100BF2F462C8A60
:101FE0004CF6FF700440F08804432C82AC894EF616
:101FF000F3100440B08831890843718908430443D1
:10200000AC81AC8A4FF6FF400440B0890443AC82F7
:1020100001A8FEF7B4FFC648874202D1DDF810A040
:1020200001E0DDF80CA0A88900F4004040B10AEB03
:10203000CA0000EB0A1031684900B0FBF1F807E074
:102040000AEBCA0000EB0A1031688900B0FBF1F816
:102050006420B8FBF0F004012009642101FB108921
:10206000A88900F4004040B1322000EBC900B0FB69
:10207000F1F000F00700044308E0322000EB091003
:102080006421B0FBF1F000F00F0004432C8106B096
:10209000BDE8F0874FF41651016000218180C180B6
:1020A00001810C21418100218181704710B50246D8
:1020B0000020108A4FF2FF0318400B884C882343FE
:1020C0008C882343CC8823431843108210BD002101
:1020D000018041808180C180704721B1828942F4B2
:1020E0000052828104E082894DF6FF731A4082819A
:1020F0007047F0B50346002400260025002040F676
:102100006A17B94200D100BF1846C1F3421401F06A
:102110001F06012707FA06F5012C01D10C3004E057
:10212000022C01D1103000E014301AB107682F439F
:10213000076002E00768AF430760F0BD1AB1838A09
:102140000B43838202E0838A8B4383827047028A37
:102150004FF6F0731A400282028A0A4302827047E5
:1021600082894FF2FF731A40828182890A438281F9
:10217000704721B1828942F00202828104E08289A3
:102180004FF6FD731A4082817047028A4FF6DF7363
:102190001A400282028A0A430282704721B1028AEF
:1021A00042F48042028204E0028A4BF6FF731A4036
:1021B00002827047C1F30802828070470146888816
:1021C000C0F308007047818941F0010181817047A7
:1021D000028BD2B20283028B42EA01220283704751
:1021E000028B02F47F420283028B0A430283704710
:1021F00021B1828A42F02002828204E0828A4FF674
:10220000DF731A408282704721B1828A42F0100245
:10221000828204E0828A4FF6EF731A40828270470E
:1022200021B1828A42F00802828204E0828A4FF65B
:10223000F7731A408282704721B1828942F40042CA
:10224000828103E08289C2F30E028281704721B14C
:10225000828A42F40062828204E0828A4FF2FF7333
:102260001A4082827047828A4FF6FB731A4082823C
:10227000828A0A438282704721B1828A42F0020236
:10228000828204E0828A4FF6FD731A408282704790
:1022900002460020B1F5007F00D100BF13880B403B
:1022A0000BB1012000E00020704701F40072B2F58C
:1022B000007F00D100BFCA430280704770B502465C
:1022C000002400230025002040F66A16B14200D108
:1022D00000BFC1F3421501F01F03012606FA03F304
:1022E000012D02D19689334006E0022D02D1168AD3
:1022F000334001E0968A33400C12012606FA04F4BA
:102300001688344013B10CB1012000E0002070BDEC
:1023100010B50022002340F66A14A14200D100BF8C
:102320000A1201249440A3B2DC43048010BD0000D3
:10233000003801400044004000480040004C00408C
:10234000005000404FF0E021096921F004014FF0F6
:10235000E0221161C21700EB5272C2F3C702404B78
:102360001A701946097801EB4102C2EBC1114FF610
:10237000FF7202EAC1013B4A118070470146394AA7
:1023800012884A434FF0E0235A6100229A610122E9
:102390001A6100BF4FF0E022106900F001021AB18B
:1023A00000F48032002AF5D000224FF0E0231A61B9
:1023B0009A61704701462A4A12784A434FF0E02357
:1023C0005A6100229A6101221A6100BF4FF0E02297
:1023D000106900F001021AB100F48032002AF5D031
:1023E00000224FF0E0231A619A61704730B51E4811
:1023F000006842F21072B0FBF2F1B1F1807F00D3BD
:102400001DE021F07F40401E4FF0E0225061501748
:102410000F22002807DA13071D0E144B00F00F04DB
:10242000241F1D5503E013071C0E114B1C5400BF45
:1024300000204FF0E02290610720106100BF30BD06
:1024400010B50C480068401C0A490860084600683E
:10245000592803DD00200860FEF779FC10BD00005C
:10246000280000202A0000200000002018ED00E0D5
:1024700000E400E02C00002008B500214FF00060CF
:10248000FDF799FF4FF4C060FDF75EFF25208DF842
:10249000000001208DF8010003208DF802000120CA
:1024A0008DF803006846FDF754FF1D208DF80000ED
:1024B00000208DF8010001208DF802008DF8030046
:1024C0006846FDF746FF1E208DF8000000208DF8BD
:1024D00001008DF8020001208DF803006846FDF729
:1024E00038FF32208DF8000000208DF80100022016
:1024F0008DF8020001208DF803006846FDF729FFE2
:1025000019208DF8000001208DF8010004208DF8BD
:10251000020001208DF803006846FDF71AFF08BD90
:1025200010B5FEF72BFC4FF48030FEF747FCFEF7AA
:1025300084FC0446012C24D11020FDF787FF0220E3
:10254000FDF770FF0020FEF7BEFC0020FEF7CDFC7B
:10255000A002FEF7C1FC4FF4E0112004FEF796FC48
:102560000120FEF79FFC00BF3920FEF74AFC00283F
:10257000FAD00220FEF799FC00BFFEF79FFC082866
:10258000FBD110BD08B501215C20FEF765FD4FF4BD
:102590004C60ADF8000010208DF8030003208DF88A
:1025A000020069460148FEF77BFA08BD00100140B1
:1025B00000B585B001210520FEF74EFD01218803FD
:1025C000FEF74AFD2D48FFF7B9FC4FF40070ADF857
:1025D000100018208DF8130003208DF8120004A9B4
:1025E0002748FEF75DFA4FF48060ADF810004820F0
:1025F0008DF8130004A92248FEF752FA4FF4E13097
:1026000000900020ADF80400ADF80600ADF8080019
:10261000ADF80C000C20ADF80A0069461748FFF72A
:10262000D0FC012240F225511448FFF762FD012140
:102630001248FFF752FD40211048FFF736FE05B063
:1026400000BD70B504460D46E1B20C48FFF7B2FD7F
:1026500000BF80210948FFF71BFE0028F9D0204663
:1026600070BD10B5044600BF20210448FFF710FEDE
:102670000028F9D00148FFF7A1FD10BD0038014046
:10268000000801402DE9F047044689469B48007840
:1026900018B39B4801689B48006800F0C4FF0746D8
:1026A00099480168384600F0BEFF05469748016822
:1026B0009748006800F0B7FF0646294600F0E5FF9E
:1026C00094490860944801689248006800F0DDFF72
:1026D000924908600020894908704946204600F068
:1026E0004AFF05464FF07C5100F09DFF8C49086081
:1026F0004946204600F091FF8A49086000218A4837
:10270000006801F075F80ED200218848006801F0D9
:102710006FF808D2824800688549086081480068DF
:102720008449086051E000217F48006801F056F8B4
:1027300012D200217D48006801F050F80CD2784890
:10274000006880F000407A4908607648006880F0B0
:1027500000407849086038E000217348006801F0C3
:102760003DF814D200217148006801F041F80ED202
:102770006C48006880F000406D4908606848016856
:102780004FF0404000F04FFF6A4908601DE0002113
:102790006548006801F02CF812D2002163480068F7
:1027A00001F01CF80CD25F480068614908605C4881
:1027B00001684FF0804000F036FF5E49086004E099
:1027C00000205B4908605B4908605448016859482B
:1027D000006800F028FF584908600846016857481B
:1027E000006800F0C8FE55490860534801684FF082
:1027F0007C5000F018FF054650480168284600F05C
:10280000BAFE4F4908600846006800F0B7FF074667
:1028100001F09CFE054600F0C4FF4A4908604848A4
:10282000006800F0ABFF074601F03AFE054600F0F5
:10283000B8FF45490860084601683D48006800F057
:10284000F2FE064633480168304600F0ECFE0546CD
:102850003E480168284600F08EFE3C490860394831
:1028600001683348006800F0DEFE0646294801682A
:10287000304600F0D8FE054635480168284600F08D
:102880007AFE33490860234801682948006800F04F
:10289000CAFE05462F480168284600F0F6FE2E497C
:1028A00008602C4801682448006800F0EEFE2B49BF
:1028B0000860164801682148006800F099FF08D2B6
:1028C000274801681D48006800F0A7FE1B49086002
:1028D00011E00E48006880F000451848016828465D
:1028E00000F086FF07D21E4801681448006800F017
:1028F00042FE12490860BDE8F08700009400002005
:1029000048000020680000204C00002058000020F3
:10291000500000208000002044000020840000209F
:10292000880000208C0000202001002024010020CD
:10293000780000207C0000206C000020380000207F
:102940009000002070000020740000203000002063
:1029500034000020640000203C00002040000020E3
:102960006000002000B589B001210846FEF781FB18
:1029700001210420FEF770FB0620ADF8200018208E
:102980008DF8230003208DF8220008A94748FEF7A0
:1029900087F840F60F60ADF818000020ADF814007D
:1029A000ADF81A00ADF8160005A94FF08040FEF70B
:1029B0008BFC6020ADF804000020ADF80C00012075
:1029C000ADF806006420ADF80A0001A90007FEF783
:1029D00047FD0821C806FFF719F96020ADF804008B
:1029E0000020ADF80C000120ADF806006420ADF821
:1029F0000A0001A90007FEF7E6FC0821C806FFF758
:102A0000F8F801218807FFF7BBF801218807FEF7D6
:102A1000B7FF09B000BD0EB501210820FEF729FB64
:102A20004FF47A60ADF804000820ADF800000020F3
:102A3000ADF80600ADF8020069461D48FEF744FCFB
:102A400001211B48FFF762FA012211461848FEF7E0
:102A5000B2FF01211648FEF793FF0EBD0EB501210E
:102A6000C802FEF7F9FA1348FEF75AFB4FF4FA7062
:102A7000ADF8040041F61F40ADF800000020ADF8AD
:102A80000600ADF8020069460A48FEF71DFC012168
:102A90000848FFF73BFA012211460648FEF78BFF74
:102AA00001210448FEF76CFF0EBD00000008014044
:102AB000000C0040002C014010B5044642F210709A
:102AC00084420FD940214C48FEF797F880214A48AC
:102AD000FEF795F8A4F51C50103800F01DFE47498C
:102AE00008621EE042F2107084420FD280214248F8
:102AF000FEF783F840214048FEF781F842F210715A
:102B0000081B00F009FE3D4908620AE040213A48EE
:102B1000FEF773F880213848FEF76FF80020374938
:102B2000086210BD10B5044642F21070844211D9FB
:102B30004FF480613048FEF760F84FF400612E4892
:102B4000FEF75DF8A4F51C50103800F0E5FD2C49A7
:102B5000086222E042F21070844211D24FF4006108
:102B60002548FEF74AF84FF480612348FEF747F8FE
:102B700042F21071081B00F0CFFD214908620CE001
:102B80004FF480611C48FEF738F84FF400611A4892
:102B9000FEF733F800201A49086210BD2DE9F05FF6
:102BA00004460D46174E304600F0BBFD834600F04C
:102BB000AAFD8246214600F036FD814600F0B1FDB7
:102BC0000746304600F0ADFD834600F09CFD82468E
:102BD000294600F028FD814600F0A3FD804642F220
:102BE00010703844FFF79EFF42F210704044FFF728
:102BF00063FFBDE8F09F000000100140C00000200E
:102C0000E4000020986E894100B587B001210420BE
:102C1000FEF72FFA01210820FEF71EFA6846FDF79D
:102C2000CAFFC020ADF8000004208DF80300032087
:102C30008DF802006946FB48FDF732FFFA48FEF7BF
:102C40006FFA04A8FEF76CFE0020ADF8100043F602
:102C5000FF70ADF814000020ADF81600ADF81200BA
:102C600004A9F148FEF730FB00231A460321EE4881
:102C7000FEF739FF01A8FEF766FE0620ADF80C004E
:102C800001A9E948FEF7B3FD0121E748FFF73EF946
:102C900001221146E448FEF78EFE0121E248FEF7CC
:102CA0006FFE07B000BD00B587B001210220FEF71E
:102CB000E0F901210420FEF7CFF96846FDF77BFF1C
:102CC000C020ADF8000004208DF8030003208DF82B
:102CD00002006946D548FDF7E3FED548FEF720FA25
:102CE00004A8FEF71DFE0020ADF8100043F6FF70AB
:102CF000ADF814000020ADF81600ADF8120004A9DC
:102D0000CB48FEF7E1FA00231A460321C848FEF734
:102D1000EAFE01A8FEF717FE0620ADF80C0001A997
:102D2000C348FEF764FD0121C148FFF7EFF8012217
:102D30001146BF48FEF73FFE0121BD48FEF720FEC9
:102D400007B000BD70B5BB480078F0B9BA4801883B
:102D5000B548243003880020B74E3080B248243074
:102D6000008805B2B048008800F01000102805D196
:102D7000B2480068181AC0EB813204E0AF4800681E
:102D8000181A00EB8132144609E00020A94E307079
:102D90000024A94E3080A4482430008805B2A748FA
:102DA000056020B270BD70B5A5480078F0B9A5489F
:102DB00001889F48243003880020A24E30809C4820
:102DC0002430008805B29A48008800F010001028CE
:102DD00005D19D480068181AC0EB813204E09A487A
:102DE0000068181A00EB8132144609E00020944E66
:102DF00030700024934E30808D482430008805B216
:102E00009148056020B270BD002007E000218F4A84
:102E100042F820108E4A42F82010401C0328F5D3B7
:102E20000121844A1170864A117070472DE9F05FC4
:102E300000210C460D460E460F468A460DE083489B
:102E400050F82A00861947EBE077814850F82A109D
:102E50000C1945EBE1750AF1010ABAF1030FEED343
:102E6000032200232046294600F058FB04460D4665
:102E7000032200233046394600F050FB06460F4639
:102E8000C8224FF0000C2346A3FB023B05FB02B116
:102E900004FB0C103C220021A3FB028B00FB02B0C0
:102EA00003FB01094FF480420B464046494600F0BF
:102EB00035FB0446C82300213046A0FB03CB07FBAB
:102EC00003B206FB01203C22ACFB028B00FB02B0EC
:102ED0000CFB01094FF480420B464046494600F086
:102EE0001DFB064630B25B49086020B25A490860B3
:102EF00058480068594908605748006858490860B0
:102F0000BDE8F09F70B55648006854490968401AFA
:102F1000544908604F48006800F0FEFB054629460A
:102F2000514800F0ABF8044650480168204600F0D4
:102F300022FB4E4908604E494C48006800F058FC9E
:102F400002D24B484949086000214848006800F017
:102F500045FC02D200204549086070BD70B53F486D
:102F600000683F490968401A3E4908603A480068CD
:102F700000F0D2FB054629463E4800F07FF80446A3
:102F80003D480168204600F0F6FA3B4908603849A0
:102F90003948006800F02CFC02D2354836490860F8
:102FA00000213548006800F019FC02D200203249A7
:102FB00008603148006800F0CDFB4FF08041088781
:102FC0002A48006800F0C6FB4FF08041888770BD3A
:102FD00010B5FFF719FEFFF766FEFFF715FF10BDEE
:102FE00010B501211048FEF791FF134800884FF6F5
:102FF000FF71884204D010480088401C0E490880A8
:1030000010BD10B501210A48FEF780FF0D48008869
:103010004FF6FF71884204D00A480088401C0949D5
:10302000088010BD000C014000080040000801406D
:1030300000040040BC000020AE0000200801002079
:10304000BD000020AC0000200C0100205C0100202D
:10305000680100209C000020A0000020A4000020A7
:10306000A8000020B8000020E4000020B0000020EC
:1030700000006145C0000020B40000202DE9F047A9
:1030800004460F46002000F03EFB80463946206A89
:1030900000F0C3FA8246414600F06DFAE060E16854
:1030A000206800F0C0FA8146A06900F02CFB82463F
:1030B000E16800F060FA804600F033FBA06121492E
:1030C000E069086020491F48006800F091FB05D3C3
:1030D0001E491C48006800F081FB01D2002060609E
:1030E000A06900F010FB8046616800F09CFA05467C
:1030F000D4E9030100F091FA8046A16800F093FA48
:103100000646E06820612946484600F034FA8046C9
:10311000314600F030FAE0610D49E069096800F0DD
:1031200067FB02D20A480068E0610A49E069096861
:1031300000F054FB02D207480068E061E069BDE896
:10314000F0870000180100200000A0400000A0C08F
:103150001001002014010020002500260024002773
:10316000FFF7DEF9FFF788F9FFF70CFAFFF720FA0F
:10317000FFF7F8FBFFF72CFFFFF74DFCFFF76EFCA6
:10318000B7E05C48007800F00100002850D05A48B1
:1031900000685A4908605A4800685A4908605A4805
:1031A00000685A4908605A4800685A4908605A48F5
:1031B00000685A490860002419E05048005D5849E9
:1031C00008555048015D564A201D11544F48015D75
:1031D00004F1080011544F48015D04F10C00115432
:1031E0004E48015D04F110001154601CC4B2042C5F
:1031F000E3DB0A204A490875002611E040214948CE
:10320000FFF753F84648815D4648FEF7D3FF00BFFD
:1032100040214448FFF73CF80028F9D0701CC6B2A2
:10322000152EEBDB3348007800F0FE0031490870C2
:103230003048007800F0020058B13B4801683B4834
:103240000068FFF71FFA2B48007800F0FD002949BD
:1032500008702848007800F0080028B34021314861
:10326000FFF723F800270CE000212E48FEF7A2FF0D
:1032700000BF40212B48FFF70BF80028F9D0781C3D
:10328000C7B2032FF0DB0A212648FEF793FF00BFE9
:1032900040212448FEF7FCFF0028F9D015480078AB
:1032A00000F0F700134908702148008800F400403E
:1032B000C8B100250AE01F48405D1F4948551D4917
:1032C000281D085C1D494855681CC5B2042DF2DB59
:1032D000194800681A4908601848006819490860C8
:1032E000002013490880154A1168134A1068FFF737
:1032F00055FC46E728010020300000203401002062
:103300003400002038010020380000203C0100205B
:103310003C0000204001002040000020440100202B
:1033200074010020003801404C01002050010020B1
:103330005401002089010020300100202C010020D0
:10334000200100202401002010B540F225516648DC
:10335000FEF7B4FF00286AD06348FEF72FFF6349E9
:1033600008706348008800F4004000285FD160487E
:10337000008800F48040A0B3084600780A2826D1CF
:103380005B48007800F03F00082811D158480088B9
:1033900040F40040564908805648007840F0040048
:1033A000544908700846007800F0F70008703EE0C5
:1033B0005048007840F008004E49087008460078F0
:1033C00000F0FB0008700020494908802FE04948C0
:1033D000007840F008004749087000204449088000
:1033E00025E0FFE7414800780D2806D140480088D5
:1033F00040F480403E49088019E03C4800783C4950
:103400000988C1F30D013C4A505439480088401CDA
:103410003749088008460088C72808DD3548007805
:1034200040F008003349087000203149088010BD81
:1034300070B501213148FEF76CFD002841D03048BD
:10344000008828B12E480088401E2D49088034E0AD
:1034500009202B490880FFF775FC0446FFF7A3FC01
:103460000546284600F04FF926490860204600F03E
:103470004AF9254908601F48007840F002001D49BC
:10348000087022482249097840F821402148204903
:10349000097840F821501E480078401C1C490870EB
:1034A00008460078032801DB00200870FFF7BEFC07
:1034B000FFF728FDFFF752FD00BF01210F48FEF77F
:1034C00039FD70BD10B501211348FEF722FD48B14A
:1034D0000848007840F001000649087001210E48B4
:1034E000FEF728FD10BD0000003801405601002005
:1034F000540100202801002089010020000C004018
:10350000480100204C010020500100205C010020F7
:103510004A01002068010020002C01402DE9F04103
:1035200000242546002905DA01240027D0EB0700F6
:1035300067EB0101002B05DA0027D2EB070201251A
:1035400067EB030300F05EF986460E4617469C467D
:10355000AC4204D00025D0EB050E65EB010624B18A
:103560000020D2EB000760EB030C704631463A4670
:103570006346BDE8F081F0B480EA0102D40F420056
:10358000B2EB410F02D20246084611464A0042D031
:10359000C30DDDB2C1F3C752AD1A202D35DAC1F328
:1035A000160141F4000204B15242C5F1200602FAAC
:1035B00006F12A411044B3EBD05F23D0C4B1012DF2
:1035C000A0EBC35009DCF0BC4FF0004202EAC3524A
:1035D000DBB200F5000000F04FB9400000F1807050
:1035E00000EBC350A0F1807040EAD170490009E0BF
:1035F000490841EAC071A0EBC35000F50000400843
:1036000000EBC350F0BC00F02EB96142012202EB86
:103610004101001BF6E7F0BC704781F00041AAE7CA
:1036200080F00040A7E780EA010210B502F00043F5
:10363000400022D04A001FD0010E01EB1261C0F3FE
:103640005600C2F3560240F4000042F40002A0FB10
:10365000022000047F39140400D0401C50EA1240BC
:1036600001D44000491EC2B20C0604EBD010401C2D
:103670004008802A02D003E0002010BD20F00100A5
:10368000002900DA0020184310BD30B480EA01029E
:1036900002F0004530F0004221F0004013D090B11C
:1036A000C30DD40DC2F31601C0F31600E41A41F4A1
:1036B000000140F400027D34914201D3641C00E01B
:1036C0004900002C02DA30BC002070474FF40000A3
:1036D0000023914201D3891A034340084FEA410174
:1036E000F7D151B1914202D14FF0004105E002D231
:1036F0004FF0010101E06FF0010103EBC4502844D9
:1037000030BC00F0B0B8C10F80EAE0700844CA07CE
:103710009623002100F0B0B896230022114600F055
:10372000ABB800F0004220F00040C10DC0F316001D
:1037300040F400007F2901DA00207047962903DC5D
:10374000C1F19601C84001E096398840002AF4D0C2
:103750004042704720F00040C10DC0F3160040F415
:1037600000007F2901DA00207047962903DCC1F1AF
:103770009601C840704796398840704700F0004273
:1037800030F000400AD0C10D01F56071C0F31600A1
:1037900042EA0151C2084007114370470020014628
:1037A000704701F0004330B421F0004150EA0102BB
:1037B00006D00A0DA2F56072C1F31301002A02DCE3
:1037C00030BC00207047440F44EAC104C100E01837
:1037D00030BC00EBC25000F046B80000002801DB0E
:1037E000C0F10040002901DBC1F100418142704776
:1037F000002801DBC0F10040002901DBC1F10041DC
:10380000884270472DE9F05F0546002092469B46AE
:1038100088460646814640241BE0284641464746E6
:10382000224600F0FEF853465A46C01A914110D382
:1038300011461846224600F0E5F82D1A67EB0108FC
:103840004F4622460120002100F0DCF817EB00096A
:103850004E41201EA4F10104DFDC484631462A46D1
:103860004346BDE8F09F0029A8BF7047401C4900AF
:1038700008BF20F00100704710B4B0FA80FC00FAD5
:103880000CF050EA010404BF10BC704749B1CCF100
:10389000200421FA04F411FA0CF118BF012121438C
:1038A0000843A3EB0C01CB1D4FEA00614FEA102047
:1038B00042BF002010BC704700EBC35010440029E9
:1038C000A4BF10BC7047401C490008BF20F0010095
:1038D00010BC70472DE9F04D81EA030404F0004B61
:1038E00021F0004514464FF0000A23F0004150EA51
:1038F000050220D054EA01021DD0C5F30A57024642
:10390000C5F31303C1F31300C1F30A5640F4801545
:1039100043F48013A7EB0608101BD64608F2FD38C7
:1039200073EB050002D308F1010801E092185B4136
:10393000B8F1000F03DA00200146BDE8F08D002049
:103940004FF48011064684460EE0171B73EB050703
:1039500005D3121B63EB050306434CEA010C49082F
:103960004FEA300092185B4150EA0107EDD152EA6C
:10397000030012D082EA040083EA0501084305D05F
:10398000101BAB4106D20122002306E000224FF0BB
:10399000004302E06FF0010253101AEB06004CEBFB
:1039A000085110EB0A0041EB0B01BDE8F04D00F0AF
:1039B00048B870B521F0004303430CD0C1F30A5559
:1039C0000024D5EB040564EB0403D617AD1AB3410C
:1039D00002DB0020014670BD201841EB025170BD92
:1039E000064C074D06E0E06840F0010394E807004C
:1039F00098471034AC42F6D3FCF79EFB20470008F2
:103A000040470008202A04DB203A00FA02F1002097
:103A100070479140C2F1200320FA03F3194390400C
:103A20007047202A04DB203A21FA02F00021704777
:103A300021FA02F3D040C2F1200291400843194616
:103A4000704710B5002B08DA401C41F100019218B4
:103A50005B411A4301D120F0010010BD2DE9F04D6A
:103A600092469B4611B1B1FA81F202E0B0FA80F2BF
:103A700020329046FFF7C6FF04460F4640EA0A0090
:103A800041EA0B0153465A46084313D0114653EA04
:103A9000010019D0C8F140025046FFF7C2FF0546A9
:103AA0000E46504659464246FFF7ACFF084305D044
:103AB000012004E020463946BDE8F08D0020054392
:103AC00046EAE0762C4337430A986305E40AA0EB04
:103AD00008000022FD0A44EA47540A3002D50020BB
:103AE0000146E9E7010510196941DDE908450019BA
:103AF0006941BDE8F04DA4E72DE9FE4F804681EA1B
:103B00000300C00F0C46009021F0004123F0004557
:103B1000B8EB0200A94105D24046214690461C461A
:103B20000B46024623F00040104347D0270DC7F351
:103B30000A00C3F30A510290401A019040286BDA40
:103B4000C3F3130040F4801B0098924620B1002379
:103B5000D2EB030A63EB0B0B01985946C0F140020C
:103B60005046FFF74FFF06460D4650465946019A0C
:103B700000F018F910EB08006141002487EA1152A7
:103B800084EAE7731A4340D0009A62B3019A012A8B
:103B90004FEA075215DC001B61EB02014FF00042B7
:103BA00002EA0752CDE90042001C41F5801132467D
:103BB0002B46FFF753FF03B0BDE8F08F4046214688
:103BC000F9E7001B61EB0201001C41F580130018AE
:103BD0005B412018A2F5001747EB030140EAD570BE
:103BE000B6196D4111E06D084FEA360645EAC07519
:103BF0004FEA0752001B61EB0201001C41F58011E6
:103C000049084FEA30000019514132462B4603B0B3
:103C1000BDE8F04FFFF715BF0098012240000023D8
:103C2000D0EB020263EBE073009821464FEAE074A8
:103C3000B8EB000061EB0401E9E783F000435BE7C8
:103C400081F0004158E72DE9FE4F81EA030404F0BA
:103C5000004421F0004100944FF0000B23F000439A
:103C600050EA01045ED052EA03045BD0C3F30A5465
:103C7000C1F30A552C44A4F2F3340194A0FB02547E
:103C8000C1F3130141F48011C3F3130343F4801310
:103C900001FB024400FB034E840A970A44EA815464
:103CA00047EA8357A4FB076802958D0A05FB078541
:103CB0004FEA932C04FB0C542705029D4FEA06584B
:103CC00047EA1637B5EB08056EEB070C870E920E28
:103CD00047EA811742EA8312A7FB0201B6EB0B0108
:103CE00064EB00042B0D43EA0C335E1844EB1C50CC
:103CF000DA465146E7FB0201C5F313044FEA0B33E2
:103D000043EA14534FEA0432019C43EA0603A4F148
:103D10000C040294009CCDE900B4FFF79FFE03B0B1
:103D2000BDE8F08F00200146F9E70EB5C10F80EA2B
:103D3000E0700844CA07002140F233438DE80E00CA
:103D40000A460B46FFF78AFE03B000BD0EB540F2EF
:103D5000334102910021CDE900110A460B46FFF7DD
:103D60007DFE03B000BD70B5C1F30A5201F00045FD
:103D70000024C1F3130140F2FF3341F480119A4251
:103D800001DA002070BD40F233439A42A2F233427E
:103D900003DC5242FFF745FE00E090402C43F1D097
:103DA000404270BD202A06DBCB17203A41FA02F0D0
:103DB00043EAE07306E041FA02F3D040C2F1200288
:103DC000914008431946704770B58C1810F8015B94
:103DD00015F0070301D110F8013B2A1106D110F8A4
:103DE000012B03E010F8016B01F8016B5B1EF9D1A8
:103DF0002B0705D40023521E0DD401F8013BFAE72E
:103E000010F8013BCB1A921C03E013F8015B01F898
:103E1000015B521EF9D5A142D8D3002070BD4900E4
:103E200050EAC12018BF04204A0D18BF40F001001D
:103E300040F2FF72B2EB515F08BF40F00200012870
:103E400008BF0520704700002DE9F74F144696B0D3
:103E50000021C4E902111799089121F00045CA49CF
:103E60008D4206DC1799C4E9000119B00020BDE8B5
:103E7000F08FC649DFF818A3A9423CDD0899C54E6A
:103E80000029C54FC54A1799534619DDFFF7D5FEDE
:103E9000554506D0C24AC34BFFF7CFFEC4E9000127
:103EA0000AE04FF0D352BF4BFFF7C7FE32463B4606
:103EB000FFF7C3FEC4E9000119B00120BDE8F08F8F
:103EC000FFF71AFE554506D0B54AB64BFFF714FE6C
:103ED000C4E900010AE04FF0D352B24BFFF70CFEE9
:103EE00032463B46FFF708FEC4E9000119B04FF027
:103EF000FF30BDE8F08FAC49A942179978DB21F07B
:103F000000488346A94AAA4B4146FFF79CFE00227F
:103F1000A84BFFF7F1FDFFF726FF0990FFF705FF1C
:103F200006460F469D4A5346FFF78DFE5A464346C6
:103F3000FFF786FE80468A46994A9A4B30463946B4
:103F4000FFF781FE2A0D01250B9242465346FFF7EB
:103F500077FE032DC4E9000139D00B98C1F30A5153
:103F6000401A05EB45111139814230DA9248C346B7
:103F7000784400EB0510CDF81CA00C90D0E900238C
:103F800030463946FFF75FFECDE9020102460B4697
:103F900058460799FFF751FE80468A4602460B466F
:103FA00058460799FFF749FEDDE90223FFF745FE72
:103FB00083460C9803913946D0E902233046FFF737
:103FC00042FE5A46039BFFF738FE6D1CBDE708987A
:103FD0000028A2BF099819B0BDE8F08F616881F090
:103FE00000416160099819B04042BDE8F08FFFE7D9
:103FF000C1F3130141F480110E911799C1F30A51D5
:10400000A1F2F532511102F01F08C8F120021292FC
:1040100000220C920D92694A7A4402EB810101F16F
:10402000140C0DA95FF00607DCF80020DCF8045042
:1040300002FA08F3129AD1F800A025FA02F21A4304
:104040000E9BA2FB0356A2FB00329A4415449A45EC
:1040500034BF4FF0010B4FF0000B51F8043C05EB5F
:104060000B0E7344954234BF012200221644BBF16B
:10407000000F02D0AB4202D903E0AB4201D20122D1
:1040800000E0002241F808A93244E1E801237F1E44
:10409000ACF1040CC8D10898DDE90A6500F10050C4
:1040A000800F11900898099F8000FFF73EFE804620
:1040B0008A463846FFF74AFE6FF01D02FFF779FC8B
:1040C000074630460591FFF741FE6FF03D02FFF7CE
:1040D00070FCCDE903102846FFF738FE6FF05D0253
:1040E000FFF767FC064602460B460191DDE9031027
:1040F000FFF702FD3A46059BFFF7FEFC424653469A
:10410000FFF7FAFC00200D46834642465346FFF770
:1041100094FD3A46059BFFF790FDDDE90332FFF77A
:104120008CFD3246019BFFF78BFDDFF89880244A17
:104130004346FFF788FD06460F46234A234B584661
:104140002946FFF780FD32463B46FFF7D5FC0F4678
:1041500006464FF0A842434658462946FFF773FDEE
:1041600032463B46FFF7C8FC179A12F0004F04D0C6
:10417000119A81F0004152421192C4E90001119854
:1041800019B0BDE8F08F0000FB21E93F7CD9024067
:10419000FB21F93F7370032E8A19A33B00004054A2
:1041A0003163621A61B4D03DFB21394183C8C96DC6
:1041B000305FE43F0000E03FBC0600004406000022
:1041C000182D4454FB21F93D3326A611460B113C12
:1041D0002DE9FF4D21F0004807460C46B8F1795F04
:1041E00008DAFFF7C0FD002801BF0020324904B003
:1041F000BDE8F08D3A46234610461946FFF723FDE9
:10420000054602462D480E460B460621784400F02E
:104210005DF82A463346FFF716FDDDE902238246A4
:104220008B4638462146FFF70EFD04460F465246A0
:104230005B4628463146FFF706FD22463B46FFF720
:10424000FCFC07468A464FF0FF3228463146FFF70E
:10425000B0FB1B4A90450ADA3A465346FFF7EDFC9D
:1042600004B00022BDE8F04D134BFFF7E9BC154A3E
:104270004245A8BFA8F500154FF00004B8BF124D85
:1042800022462B46FFF7D9FC0646884622462B4697
:1042900000200949FFF7D1FC04460D463A46534633
:1042A00030464146FFF7C9FC04B022462B46BDE824
:1042B000F04DFFF7C5BC00000000F03FF003000028
:1042C0003333D33F0000E93F0000D23F2DE9F041F6
:1042D0004F1E00EBC7010446D1E9000115461E46FA
:1042E00037F006020DD02A463346FFF7ACFC7F1E9E
:1042F00004EBC703D3E90023FFF7FEFB37F0060208
:10430000F1D1022F25D0042F13D0062F18BFBDE8FE
:10431000F0812A463346FFF796FCD4E90A23FFF7DB
:10432000EBFB2A463346FFF78EFCD4E90823FFF760
:10433000E3FB2A463346FFF786FCD4E90623FFF762
:10434000DBFB2A463346FFF77EFCD4E90423FFF764
:10435000D3FB2A463346FFF776FCD4E90223FFF766
:10436000CBFB2A463346FFF76EFCD4E90023BDE8B9
:10437000F041FFF7C1BB00002DE9FF4D054621F0DC
:10438000004084B00C46B0F1795F0BDA2846FFF7A5
:1043900046FD042808BF00F065F8284608B021460D
:1043A000BDE8F08D2A460B461046FFF74CFC06464A
:1043B0000F462A462346FFF746FC804626488A4693
:1043C00032463B4605217844FFF780FF834610982C
:1043D000029160B3214A224B40465146FFF733FC1D
:1043E000CDE900015A4640465146029BFFF72BFC9F
:1043F00082468846DDE906014FF0FF32FFF7D9FA21
:1044000052464346FFF719FC32463B46FFF71BFC7A
:10441000DDE90623FFF711FCDDE90023FFF70DFCC2
:1044200008B02A462346BDE8F04DFFF709BC0B460D
:104430005A4630463946FFF706FC084A084BFFF754
:104440005BFB42465346FFF7FEFB08B02A46234675
:10445000BDE8F04DFFF750BB2E0300004955555500
:104460005555C5BF024A00201107FFF7A2BA000048
:1044700001FDFFFF02E008C8121F08C1002AFAD19F
:1044800070477047002001E001C1121F002AFBD1D4
:104490007047000001490860704700005801002083
:1044A00000B5284B21F0004287B09A42DCBF0022C1
:1044B000134631DD244B9A420DD168B94FF001000B
:1044C000FFF7E8FF002207B01346104611465DF8DB
:1044D00004EBFFF7FFB906DB07B04FF001025DF810
:1044E00004EBFFF766BA02AAFFF7AEFC10F0030177
:1044F00004BF0DF1080C9CE80F000DD0012001292C
:104500000ED0022914D00DF1080C00909CE80F0089
:10451000FFF732FF07B000BDFFF75AFE07B000BD3E
:104520000DF1080C00909CE80F00FFF725FF05E057
:104530000DF1080C9CE80F00FFF74AFE07B081F070
:10454000004100BDFB21E93F0000F07F00B5294B91
:1045500021F0004287B09A4203DC00221346009209
:1045600033E0254B9A420DD168B94FF00100FFF7B7
:1045700091FF002207B01346104611465DF804EB88
:10458000FFF7A8B906DB07B04FF001025DF804EBB6
:10459000FFF70FBA02AAFFF757FC10F003014FF024
:1045A00001000DD0012914D002291AD00DF1080CF8
:1045B0009CE80F00FFF70CFE07B081F0004100BD42
:1045C0000DF1080C00909CE80F00FFF7D5FE07B036
:1045D00000BD0DF1080C9CE80F00FFF7F9FD07B0D6
:1045E00000BD0DF1080C00909CE80F00FFF7C4FE21
:1045F000E2E70000FB21E93F0000F07F000000003F
:104600004C5555555555A53F7751C1166CC156BFF0
:104610009015CB19A001FA3EAD529C804F7E92BE00
:10462000C4B1B4BD9EEE213ED43888BEE9FAA8BD1F
:1046300000004054FB21F93F3163621A61B4D03D60
:104640000000601A61B4D03D7370032E8A19A33B39
:104650000000002E8A19A33BC14920259A837B398B
:1046600000000000000000006E83F9A22915444EEE
:10467000D15727FCC0DD34F5999562DB4190433C6E
:10468000AB6351FE61C5BBDE3A6E24B7E0D24D424A
:10469000EA2E49061C92D1091CEB1DFE3EA729B14A
:1046A000F53582E88444BB2E26709CE9417E5FB4D8
:1046B00039D69139F43953838B5F849C3B28F9BDFB
:1046C000FF97F81F0F9805DE8B112FEF1F6D0A5A09
:1046D000CF7E366DB709CB27663F464F2DEA5F9EEA
:1046E000C7BA27757BF1E5EBF739073DEA92528AA5
:1046F000B15FFB6B085D8D1FA6F810111111813F92
:10470000D561C119A0012ABF7DFEB157E31DC73E87
:10471000EB9C2B8AE6E55ABE7CD5CF5A3AD9E53DCB
:1047200040470008000000205C010000C83D000870
:10473000A84700085C010020FC0400008444000835
:104740001184A24A04680901020304060708090C3F
:104750006910051C0204060825FF0A8643238040D1
:1047600023B4421817C842D80FC93FDC0F4940E4B0
:10477000CB9640DC0FC9400AD7A33B200228453224
:10478000013985091E28192920090AD7233CCDCCD7
:10479000CC3D0318403F092224A11B10410442C113
:0847A00009228481C92C523169
:0400000508000131BD
:00000001FF
